:020000040800F2
:1000000000500020A56600089F180008A1180008ED
:10001000A3180008A5180008A71800080000000091
:1000200000000000000000000000000081570008F0
:10003000A9180008000000002158000865580008B1
:10004000ED660008ED660008ED660008ED66000844
:10005000ED660008ED660008ED660008ED66000834
:10006000ED660008ED660008ED660008ED66000824
:10007000ED660008ED660008ED660008ED66000814
:10008000ED660008ED660008ED660008AD18000892
:10009000BD180008ED660008ED660008ED66000872
:1000A000ED660008ED660008ED660008ED660008E4
:1000B000ED660008ED660008CD180008ED66000842
:1000C000ED660008ED660008ED660008ED660008C4
:1000D000ED660008ED660008ED660008ED660008B4
:1000E000ED660008ED660008ED66000800000000FF
:1000F0000000000000000000000000000000000000
:0C01000000000000000000005FF808F1A3
:1001100010B5054C237833B9044B13B10448AFF341
:1001200000800123237010BD80010020000000002A
:100130006467000808B5034B1BB103490348AFF3DC
:10014000008008BD000000008401002064670008F2
:1001500010F0010002D058B9FF207047084B1A88F0
:10016000084B1B889A4201D0032070470220704739
:10017000034A11884B1C0448405CDBB21380704773
:100180009E0200209C0200209C01002010F0010F24
:1001900000D1704700B583B08DF80410012101A88B
:1001A00001F0F6FC0128F9D003B05DF804FB7047BC
:1001B00070470000034A1388591C1180024A1380BB
:1001C000704700BFEE150020D81500200D4B1B789E
:1001D00013F0010F15D10C490A880C4B1A800C4BF7
:1001E0001B8813449BB20B80534013F47F4F04D001
:1001F000084A1368023313607047064A13680133D4
:1002000013607047F1150020EE150020E415002062
:10021000DC150020A80200200D4B1B7813F0010F05
:1002200015D00C490A880C4B1A800C4B1B881344C0
:100230009BB20B80534013F47F4F04D0084A1368DD
:10024000023313607047064A136801331360704726
:10025000F1150020EE150020E4150020DC1500202B
:10026000A80200200D4B1B7813F0020F15D00C498B
:100270000A880C4B1A800C4B1B8813449BB20B80D2
:10028000534013F47F4F04D0084A136802331360BD
:100290007047064A1368013313607047F115002058
:1002A000EE150020E4150020DC150020A802002037
:1002B0000E4B93F90030002B00DB70470C490A8885
:1002C0000C4B1A800C4B1B8813449BB20B80534081
:1002D00013F47F4F04D0094A136802331360704748
:1002E000064A136801331360E7E700BFF1150020E9
:1002F000EE150020E4150020DC150020A8020020E7
:100300000D4B1B7813F0020F15D10C490A880C4BCA
:100310001A800C4B1B8813449BB20B80534013F480
:100320007F4F04D0084A1368023313607047064AAF
:100330001368013313607047F1150020EE1500209B
:10034000E4150020DC150020A80200200D4B93F9D5
:100350000030002B15DB0C490A880C4B1A800C4B23
:100360001B8813449BB20B80534013F47F4F04D07F
:10037000084A1368023313607047064A1368013352
:1003800013607047F1150020EE150020E4150020E1
:10039000DC150020A80200200D4B1B7813F0400F45
:1003A00015D10C490A880C4B1A800C4B1B8813443E
:1003B0009BB20B80534013F47F4F04D0084A13685C
:1003C000023313607047064A1368013313607047A5
:1003D000F1150020EE150020E4150020DC150020AA
:1003E000A80200200D4B1B7813F0400F15D00C49CC
:1003F0000A880C4B1A800C4B1B8813449BB20B8051
:10040000534013F47F4F04D0084A1368023313603B
:100410007047064A1368013313607047F1150020D6
:10042000EE150020E4150020DC150020A8020020B5
:10043000024A137823F0010313707047F11500206E
:10044000024A137823F0080313707047F115002057
:10045000024A137823F0040313707047F11500204B
:10046000024A137823F0400313707047F1150020FF
:100470000F4A1378013BDBB213706BB10D490A7858
:1004800022F002020A7013F0800F0BD1094A137890
:1004900003F07F031370704706490A7842F00202A6
:1004A0000A70F0E7034A137863F07F031370704714
:1004B000DA150020F11500200F4A1378013BDBB25A
:1004C00013706BB10D490A7822F002020A7013F022
:1004D000800F0BD1094A137803F07F031370704724
:1004E00006490A7842F002020A70F0E7034A1378DC
:1004F00063F07F0313707047E6150020F1150020AC
:100500000F4A13780133DBB213706BB10D490A78CF
:1005100022F002020A7013F0800F0BD1094A1378FF
:1005200003F07F031370704706490A7842F0020215
:100530000A70F0E7034A137863F07F031370704783
:10054000DA150020F11500200F4A13780133DBB2D1
:1005500013706BB10D490A7822F002020A7013F091
:10056000800F0BD1094A137803F07F031370704793
:1005700006490A7842F002020A70F0E7034A13784B
:1005800063F07F0313707047E6150020F11500201B
:10059000024B1A88024B1A80704700BFD815002002
:1005A000EE150020094B1B787C2B0BD006D83C2B7A
:1005B00008D05C2B06D01C2B04D07047DC2B01D05C
:1005C000FC2BFAD1024B01221A70F6E7EC15002041
:1005D000DE150020024A137843F0010313707047C0
:1005E000F1150020024A137843F008031370704796
:1005F000F1150020024A137843F00403137070478A
:10060000F11500200F4B1B780F4A13706BB10F4987
:100610000A7822F002020A7013F0800F0BD10B4A05
:10062000137803F07F031370704708490A7842F08B
:1006300002020A70F0E7054A137863F07F03137033
:10064000704700BFF0150020DA150020F1150020DA
:100650000F4B1B780F4A13706BB10F490A7822F0C9
:1006600002020A7013F0800F0BD10B4A137803F0CB
:100670007F031370704708490A7842F002020A703B
:10068000F0E7054A137863F07F031370704700BFEB
:10069000F0150020E6150020F11500200F4B1B7807
:1006A0000F4A13706BB10F490A7822F002020A70E8
:1006B00013F0800F0BD10B4A137803F07F031370F4
:1006C000704708490A7842F002020A70F0E7054ACA
:1006D000137863F07F031370704700BFEB150020A1
:1006E000DA150020F11500200F4B1B780F4A13700C
:1006F0006BB10F490A7822F002020A7013F0800FE2
:100700000BD10B4A137803F07F031370704708492D
:100710000A7842F002020A70F0E7054A137863F0A3
:100720007F031370704700BFDA150020F01500201A
:10073000F1150020024B1A78024B1A70704700BF67
:10074000DA150020EB1500200F4B1B780F4A1370B1
:100750006BB10F490A7822F002020A7013F0800F81
:100760000BD10B4A137803F07F03137070470849CD
:100770000A7842F002020A70F0E7054A137863F043
:100780007F031370704700BFE6150020F0150020AE
:10079000F115002008B5084B1A78084B53F82220B1
:1007A000074B9A4205D0C1B2064B188801F058F8A1
:1007B00008BD054B1870FBE7EC1500207CA700086E
:1007C000B1010008D8150020F015002008B5024B33
:1007D0001878FFF7DFFF08BDDA15002008B5024BD7
:1007E0001878FFF7D7FF08BDE615002008B5024BC3
:1007F0001878FFF7CFFF08BDF015002008B5FFF708
:10080000F5FFFFF7E3FF094B1878094B1B781840F9
:10081000FFF7C0FF074B1B7833B1074B1B781BB1A9
:10082000064A1368013B136008BD00BFF0150020A5
:10083000DA150020DE150020DF150020A8020020B8
:1008400008B5084B1A78084B53F82220074B9A42F8
:1008500005D0074B188800F0E7FF80B208BD054BB4
:100860001878FBE7EC1500207CA70008B101000810
:10087000D8150020F015002008B5FFF7E1FF124B56
:100880001880013080B2114B188010F0FF0F0FD08C
:100890000F4A137823F00203137010F0800F0DD06D
:1008A0000B4A137863F07F031370FFF773FF08BDE3
:1008B000074A137843F002031370EEE7044A1378F3
:1008C00003F07F031370F0E7F2150020E815002015
:1008D000F115002010B5364B01221A70FFF7B0FF5A
:1008E00080F0FF0080B2334B1880334B197811F041
:1008F000080F02D066382F4B1880304B18782D4BDC
:100900001A8813189BB201F0010423449BB22C4CAB
:10091000238013F0FF0F35D021F00201264C217007
:1009200083EA000182EA0304214011F0800F2ED0F7
:10093000214C217841F04001217013F0800F2CD020
:100940001D4C217861F07F0121701B49097811F05D
:10095000080F0BD003F1660460404240D21002F051
:10096000220202EB42021344154A1380144B1B88E7
:1009700013F47F4F17D041F001010F4A11700F4A55
:10098000137010BD41F002010B4C2170C8E70A4CF6
:10099000217821F040012170CFE7074C217801F048
:1009A0007F012170D1E721F00101034A1170E6E7D0
:1009B000DE150020F2150020F1150020F0150020B2
:1009C000E815002008B5FFF757FFFFF783FF054B39
:1009D0001B7833B1044B1B781BB1044A1368013BED
:1009E000136008BDDE150020DF150020A8020020DE
:1009F00010B5FFF725FF194B1880194B1A78131AF9
:100A00009BB218490B80C0B2824214D3164C217895
:100A100041F001012170824213D013490A7822F07B
:100A200002020A7013F0800F11D00F4A137863F09E
:100A30007F03137010BD0C4C217821F0010121704F
:100A4000E9E709490A7842F002020A70EAE7064A31
:100A5000137803F07F031370ECE700BFF21500205A
:100A6000DA150020E8150020F115002008B5FFF781
:100A7000E7FE124B1880013880B2114B188010F03D
:100A8000FF0F0FD00F4A137823F00203137010F0FA
:100A9000800F0DD00B4A137863F07F031370FFF7BC
:100AA00079FE08BD074A137843F002031370EEE79E
:100AB000044A137803F07F031370F0E7F215002067
:100AC000E8150020F115002010B51B4B01221A700B
:100AD000FFF7B6FE194B1880194B1A78131A9BB200
:100AE00018490B80C0B2824214D3174C217841F0D0
:100AF00001012170824213D013490A7822F00202C8
:100B00000A7013F0800F11D00F4A137863F07F033F
:100B1000137010BD0C4C217821F001012170E9E720
:100B200009490A7842F002020A70EAE7064A137895
:100B300003F07F031370ECE7DE150020F2150020B0
:100B4000F0150020E8150020F115002008B5FFF78A
:100B50008DFFFFF7B9FF054B1B7833B1044B1B78B2
:100B60001BB1044A1368013B136008BDDE15002069
:100B7000DF150020A802002010B5FFF761FE194B19
:100B80001880194B1A78131A9BB218490B80C0B2FF
:100B9000824214D3164C217841F001012170824227
:100BA00013D013490A7822F002020A7013F0800F62
:100BB00011D00F4A137863F07F03137010BD0C4CF3
:100BC000217821F001012170E9E709490A7842F012
:100BD00002020A70EAE7064A137803F07F031370F3
:100BE000ECE700BFF2150020E6150020E815002014
:100BF000F115002008B5124B01221A70FFF720FEF4
:100C0000104B1880C0B2104B187068B10F4A13789F
:100C100023F00203137010F0800F0BD10B4A1378EE
:100C200003F07F03137008BD084A137843F00203F2
:100C30001370F0E7054A137863F07F031370F2E74F
:100C4000DE150020F2150020DA150020F115002035
:100C500008B5124B01221A70FFF7F2FD104B1880F5
:100C6000C0B2104B187068B10F4A137823F002031A
:100C7000137010F0800F0BD10B4A137803F07F0331
:100C8000137008BD084A137843F002031370F0E7AD
:100C9000054A137863F07F031370F2E7DE15002036
:100CA000F2150020F0150020F115002008B5FFF71F
:100CB000CFFFFFF79FFF08BD08B5124B01221A7046
:100CC000FFF7BEFD104B1880C0B2104B187068B112
:100CD0000F4A137823F00203137010F0800F0BD12A
:100CE0000B4A137803F07F03137008BD084A13788A
:100CF00043F002031370F0E7054A137863F07F03B3
:100D00001370F2E7DE150020F2150020E615002032
:100D1000F115002008B5FFF793FD03461A4A10802D
:100D20001A4A1278D00100F0800040EA53001849B6
:100D3000088013F0010F16D042F00102134B1A7015
:100D400010F0FF0F14D0114A137823F00203137030
:100D500010F0800F12D00D4A137863F07F031370E8
:100D6000FFF718FD08BD22F00102084B1A70E7E7F3
:100D7000064A137843F002031370E9E7034A137835
:100D800003F07F031370EBE7F2150020F11500204C
:100D9000E815002010B5314B01221A70FFF750FD05
:100DA0002F4B18802F4B197843189BB22E4A12787C
:100DB00002F0010423449BB22C4C238013F0FF0F5C
:100DC00035D022F00202284C227083EA010280EA28
:100DD0000304224012F0800F2ED0234C227842F0E0
:100DE0004002227013F0800F2CD01F4C227862F04A
:100DF0007F0222701C4A127812F0080F0BD003F108
:100E0000660461404840C01000F0220000EB400042
:100E10001844164B1880154B1B8813F47F4F17D0BE
:100E200042F0010210490A700E4A137010BD42F0E0
:100E300002020D4C2270C8E70B4C227822F04002CF
:100E40002270CFE7084C227802F07F022270D1E7AF
:100E500022F0010204490A70E6E700BFDE15002017
:100E6000F2150020F0150020F1150020E8150020F3
:100E700008B5FFF74FFFFFF78DFF054B1B7833B128
:100E8000044B1B781BB1044A1368013B136008BD77
:100E9000DE150020DF150020A802002008B5FFF7AE
:100EA000CFFC0346184A10804008184A108013F0FF
:100EB000010F17D0164A137843F00103137010F096
:100EC000FF0F15D0124A137823F00203137010F0AD
:100ED000800F13D00E4A137863F07F031370FFF76F
:100EE00059FC08BD0A4A137823F001031370E6E7A2
:100EF000074A137843F002031370E8E7044A1378B3
:100F000003F07F031370EAE7F2150020E8150020D4
:100F1000F115002008B5154B01221A70FFF790FC5F
:100F2000134B1880134B1B785840134B188010F04C
:100F3000FF0F0FD0114A137823F00203137010F043
:100F4000800F0DD00D4A137863F07F031370094BA7
:100F5000187008BD094A137843F002031370EEE7D6
:100F6000064A137803F07F031370F0E7DE150020C4
:100F7000F2150020F0150020E8150020F1150020E2
:100F800008B5FFF78BFFFFF7C5FF054B1B7833B1A3
:100F9000044B1B781BB1044A1368013B136008BD66
:100FA000DE150020DF150020A802002008B5FFF79D
:100FB00047FC1B4B18801B4B1B7803F0010242EAD5
:100FC000400080B2184A108010F47F4F16D043F0D2
:100FD0000103144A137010F0FF0F14D0114A137854
:100FE00023F00203137010F0800F12D00D4A137813
:100FF00063F07F031370FFF7CDFB08BD23F00103FF
:10100000084A1370E7E7074A137843F002031370A6
:10101000E9E7044A137803F07F031370EBE700BF9E
:10102000F2150020F1150020E815002008B5FFF7A3
:1010300007FC0E4B18800E4B1B7803400D4A1380A3
:1010400073B10D4A137823F0020313700A4A137820
:1010500003F03F0340B220F03F001843107008BD7A
:10106000054A137843F002031370EFE7F2150020EE
:10107000F0150020E8150020F115002008B5144BEC
:1010800001221A70FFF7DCFB124B1880124B1B7801
:101090001840124B188078B1114A137823F00203DC
:1010A000137010F0800F0DD00D4A137863F07F039A
:1010B0001370094B187008BD094A137843F00203F6
:1010C0001370EEE7064A137803F07F031370F0E71E
:1010D000DE150020F2150020F0150020E815002094
:1010E000F115002008B5FFF761FFFFF7C7FF054BBB
:1010F0001B7833B1044B1B781BB1044A1368013BC6
:10110000136008BDDE150020DF150020A8020020B6
:1011100008B5FFF795FB194B1880400080B2184BBB
:10112000188010F47F4F17D0164A137843F001034C
:10113000137010F0FE0F15D0124A137823F002033B
:10114000137010F0800F13D00E4A137863F07F03F2
:101150001370FFF71FFB08BD0A4A137823F0010341
:101160001370E6E7074A137843F002031370E8E7C9
:10117000044A137803F07F031370EAE7F2150020A6
:10118000E8150020F115002008B5154B01221A7052
:10119000FFF756FB134B1880134B1B781843134B68
:1011A000188010F0FF0F0FD0114A137823F00203BC
:1011B000137010F0800F0DD00D4A137863F07F0389
:1011C0001370094B187008BD094A137843F00203E5
:1011D0001370EEE7064A137803F07F031370F0E70D
:1011E000DE150020F2150020F0150020E815002083
:1011F000F115002008B5FFF78BFFFFF7C5FF054B82
:101200001B7833B1044B1B781BB1044A1368013BB4
:10121000136008BDDE150020DF150020A8020020A5
:1012200008B5064B1888421C1A8000F0FDFA044BE2
:101230001B781844C0B2034B188008BDEE1500207F
:10124000E6150020D815002070B5114D288800F053
:10125000EBFA84B22888013080B200F0E5FA80B25F
:10126000000280B2204320F0FF0424B2431CDBB212
:101270001C43A4B200F0D8FA06B2204600F0D4FA1B
:1012800046EA0026034B1E802B8802332B8070BD5C
:10129000EE150020D815002038B5104D288800F034
:1012A000C3FA04B22888013080B200F0BDFA44EAE3
:1012B000002083B200F47F40094A127813449BB2A5
:1012C000084A138003F47F43984202D0064B012260
:1012D0001A70024A13880233138038BDEE150020BD
:1012E000DA150020D8150020DF15002038B5104D84
:1012F000288800F099FA04B22888013080B200F002
:1013000093FA44EA002083B200F47F40094A12783D
:1013100013449BB2084A138003F47F43984202D0DF
:10132000064B01221A70024A13880233138038BD1B
:10133000EE150020E6150020D8150020DF1500204E
:1013400008B5064B1888421C1A8000F06DFA044B51
:101350001B781844C0B2034B188008BDEE1500205E
:10136000DA150020D815002038B5144B1888421C17
:101370001A8000F059FA034680B223F0FF0424B229
:10138000431CDBB21C43A4B200F04EFA05B2204667
:1013900000F04AFA45EA002083B200F47F40084A90
:1013A000127813449BB2074A138003F47F438342AD
:1013B00002D0054B01221A7038BD00BFEE15002087
:1013C000E6150020D8150020DF15002008B5084BD1
:1013D0001888421C1A8000F027FA80B2054B18804A
:1013E00010F0800F02D060F0FF00188008BD00BF31
:1013F000EE150020DC15002038B5094D288800F0D6
:1014000013FA04B22888013080B200F00DFA44EAE1
:101410000024044B1C802B8802332B8038BD00BF76
:10142000EE150020D815002008B5044B1888421C82
:101430001A8000F0F9F9024B188008BDEE15002063
:10144000D815002038B50B4B1888421C1A8000F0C4
:10145000EBF9094B1C780444E4B2204600F0E4F9AF
:1014600005B2601CC0B200F0DFF945EA0025034B6D
:101470001D8038BDEE150020DA150020D81500209B
:1014800038B50546094C2078290A00F5807000F02F
:10149000E7F92378013BDBB2E9B203F5807000F095
:1014A000DFF92378023B237038BD00BFEB15002025
:1014B00010B5054C2088013880B2FFF7E1FF034BDF
:1014C0001B88238010BD00BFEE150020D81500201A
:1014D00008B50146044A1378581E107003F5807051
:1014E00000F0BEF908BD00BFEB15002008B5024BA7
:1014F0001878FFF7EDFF08BDF015002008B5034B85
:10150000187840F01000FFF7E3FF08BDF115002048
:1015100038B50F4D2888013080B22880FFF7B0FF22
:101520000C4C207840F01000FFF7D2FF237843F0F6
:10153000040323704FF6FE7000F076F904B24FF604
:10154000FF7000F071F944EA00242C8038BD00BF20
:10155000EE150020F115002038B50B4D287801302C
:10156000C0B200F5807000F05FF904B22878023054
:10157000C0B200F5807000F057F944EA00202B78E3
:1015800002332B7080B238BDEB15002008B5FFF791
:10159000E3FF034B18800130024B188008BD00BFE9
:1015A000F2150020EE15002008B5054B1878013023
:1015B000C0B2187000F5807000F036F908BD00BFA9
:1015C000EB15002008B5FFF7EFFF0E4B187068B160
:1015D0000D4A137823F00203137010F0800F0BD123
:1015E000094A137803F07F03137008BD064A137885
:1015F00043F002031370F0E7034A137863F07F03AC
:101600001370F2E7F0150020F115002008B5FFF780
:10161000CBFF044B1870FFF79FFF034B1880034B61
:10162000188008BDF1150020F2150020EE150020ED
:1016300008B5FFF7B9FF40F02000014B187008BD56
:10164000F115002038B51D4B1888421C1A8000F097
:10165000EBF81B4C20701B4A137843F020031370E7
:10166000194D00232B70194A1370194B53F8203071
:1016700098472278174B53F8223098472278164B18
:1016800053F82230154A11680B4413602A782AB1A6
:101690000E4A127812B10133104A13600F4B1A68C8
:1016A0000F4B1A600F4A1368013313600E4B1B78FF
:1016B00013B10E4B1B68984738BD00BFEE150020D4
:1016C000EC150020F1150020DE150020DF150020AC
:1016D0007CA700087CAB00087CAF0008A8020020B3
:1016E000A4020020AC020020A0020020E01500208F
:1016F00030B589B000240494059406940794184BDF
:101700009A6942F020029A619A6902F020020192DD
:10171000019A9A6942F008029A619A6902F00802F5
:101720000292029A9A6942F004029A619B6903F05C
:1017300004030393039B0B4D22464FF4805128462C
:1017400002F0E2F94FF480530493012305930694C9
:101750000223079304A9284602F0C6F809B030BD59
:1017600000100240000C014008B500F01FF9FFF71F
:1017700069FFFCE730B595B000240D940F941094E8
:101780000594069407940894099401940294039490
:10179000049401220A924FF480330B930C940E921E
:1017A0000225119512934FF4E01313930AA801F048
:1017B000E9FC0F230593069507944FF48063089383
:1017C0000994294605A801F01BFF102301930494F6
:1017D00001A801F0FFFF15B030BD000000B58BB0CF
:1017E00001F096FCFFF7C6FFFFF782FF03F09EFDB6
:1017F0002022002102A804F0ADFF084B01938023B2
:1018000006931823079301AA0021054803F0D6FD8B
:10181000044B186003F0ACFDFEE700BF7CB300088A
:1018200069170008F415002008B5B0F5205F0AD349
:10183000B0F5404F0AD200F5C0439BB2B3F5005F4C
:1018400007D3FF2001E0044B185C08BD034BC05CCC
:10185000FBE7FEF77DFCF8E7F81500207CA7FF0703
:1018600008B5B0F5205F01D2054B195400F5C0430F
:101870009BB2B3F5005F00D308BDFEF787FCFBE722
:10188000F815002008B50268034B9A4200D008BD45
:1018900001F050FCFBE700BF0008004070477047B4
:1018A000FEE7FEE7FEE7FEE77047000008B50248E6
:1018B00000F0BDFD08BD00BFFC44002008B5024893
:1018C00000F0B5FD08BD00BFFC44002008B502488B
:1018D00002F08AF908BD00BFF83D002000B583B0D2
:1018E000114B9A6942F001029A619A6902F0010271
:1018F0000092009ADA6942F08052DA61DB6903F003
:1019000080530193019B00220F216FF0010002F030
:1019100013F9064A536823F0E06343F00073536001
:1019200003B05DF804FB00BF00100240000001405E
:1019300000B589B0014600221E2002F0FDF81E20ED
:1019400002F02EF9154BDA6942F00402DA61DB6924
:1019500003F004030193019B02A903A801F01CFFFB
:1019600001F00AFF43000E48A0FB03239B0C013B40
:101970000C480D4A026040F2E732C2604360002327
:101980000361836002F028FA18B1012009B05DF804
:1019900004FB044802F013F9F8E700BF001002400E
:1019A00083DE1B43F83D00200008004008B50022FC
:1019B0000F49104804F012F870B90F490D4804F0AF
:1019C00024F860B90D490B4804F025FE50B90948C8
:1019D00004F022F848B908BDFFF760FFEDE7FFF714
:1019E0005DFFEFE7FFF75AFFF1E7FFF757FFF2E779
:1019F00000000020383E0020700000205000002031
:101A000012230B80004870471C00002004230B8029
:101A100000487047300000200023934217D230B4B2
:101A20000BE0373401F8134000015C00013400255D
:101A30000D550133DBB2934207D2040FB0F1204FB2
:101A4000EFD2303401F81340EEE730BC70477047F6
:101A500038B50A4B186804331C6804331B68C01877
:101A600000D138BD064D0822A91CFFF7D5FF04227E
:101A700005F112012046FFF7CFFFF2E7E8F7FF1F5D
:101A80003400002008B51A230B80FFF7E1FF01485E
:101A900008BD00BF3400002008B50A4628B9054932
:101AA000054804F010FC034808BD0249024804F050
:101AB0000AFCF8E7FC40002088B3000810B50A468D
:101AC000034C2146034804F0FEFB204610BD00BF36
:101AD000FC400020A0B3000808B50A4628B9054913
:101AE000054804F0F0FB034808BD0249024804F031
:101AF000EAFBF8E7FC400020B4B3000808B50A464A
:101B000028B90549054804F0DEFB034808BD024931
:101B1000024804F0D8FBF8E7FC400020C0B30008FE
:101B20000020704700207047F8B505460E460B4F61
:101B30003C880A6801460A48204404F0FDFD3368E9
:101B40001C44E4B23C80074C2946204604F072FD58
:101B5000204604F08FFD0020F8BD00BF9C0200204D
:101B60009C010020383E002010B5064C002206499A
:101B7000204604F057FD0549204604F05BFD002097
:101B800010BD00BF383E0020FC430020FC42002076
:101B9000094BD3F8B832D3F814320BB10120704797
:101BA00010B5054C0A460146204604F03BFD204690
:101BB00004F046FD10BD00BF383E0020022805D8C5
:101BC000DFE800F0050402000120704702207047A2
:101BD0000268124B9A4200D0704700B583B003F5FB
:101BE000DA33DA6942F40002DA61DB6903F40003F4
:101BF0000193019B00220521132001F09DFF13207A
:101C000001F0CEFF00220521142001F095FF1420E1
:101C100001F0C6FF03B05DF804FB00BF005C0040AC
:101C200008B500F50C71D0F8680203F00DFF08BD8F
:101C300008B500EB4113D3F83C21D0F8680203F05B
:101C400030FF08BD08B500EB4113DA6BD0F868022D
:101C500003F06DFF08BD08B5D0F8680204F00EF877
:101C600008BD10B504468368022B09D10121D4F8C0
:101C7000680203F0ECFFD4F8680203F0C0FF10BD67
:101C8000FFF70CFEF2E7000010B50446D0F868023A
:101C900003F0E0FFA36923B1024A136943F006038E
:101CA000136110BD00ED00E008B5D0F8680203F044
:101CB000DAFF08BD10B504461D48C0F86842C4F8F4
:101CC000C0021C4B0360082343600223836000238F
:101CD0008361C361036200F091F830BB18230022D6
:101CE0001146D4F8C00200F0CBFC5823002280211A
:101CF000D4F8C00200F0C4FCC02300228121D4F833
:101D0000C00200F0BDFC4FF4887300220121D4F81A
:101D1000C00200F0B5FC4FF4807300228221D4F899
:101D2000C00200F0ADFC002010BDFFF7B7FDD5E705
:101D3000FC440020005C004008B5D0F8C00200F070
:101D4000D7F8FFF73BFF08BD10B514461A462346E7
:101D5000D0F8C00200F0F7F8FFF730FF10BD08B56B
:101D6000D0F8C00200F027F9FFF728FF08BD08B53A
:101D7000D0F8C00200F016FCFFF720FF08BD08B540
:101D8000D0F8C00200F045FCFFF718FF08BDD0F8FE
:101D9000C03211F0800F06D101F07F0103EB411139
:101DA00091F82A01704701F07F0103EB411191F88E
:101DB0002A00704708B5D0F8C00200F0B0F8FFF76D
:101DC000FDFE08BD08B5D0F8C00200F049F9FFF7E4
:101DD000F5FE08BD08B5D0F8C00200F01AF9FFF70B
:101DE000EDFE08BD08B5D0F8C00200F032F908BD1C
:101DF00000487047B002002070477047F0B587B0C8
:101E0000002873D0054690F82932DBB1032385F80A
:101E10002932286800F05CFC2C4654F8107B6E4692
:101E20000FCC0FC6236833602B1D0ECB384600F055
:101E30003FFC044658B1022385F82932012420468C
:101E400007B0F0BD80F82832FFF7C2FEDEE70021C0
:101E5000286800F047FC234611E005EB43120121FE
:101E600082F8291082F82830D386002182F82B10BE
:101E70009163D1639A1C5201A9500133DBB26968A6
:101E80008B42EAD312E005EB4412002382F8293199
:101E900082F8284182F82B31C2F83831C2F83C313F
:101EA00004F10A025201AB500134E4B2A142EAD873
:101EB0002C4654F8107B6E460FCC0FC62368336057
:101EC0002B1D0ECB384600F00FFC044620B1022338
:101ED00085F829320124B2E7002385F82430012354
:101EE00085F82932286800F038FFA8E70124A6E722
:101EF00090F82832012B10D010B50446012180F84B
:101F00002812FFF77AFF206800F025FF206800F014
:101F1000D6FB002084F8280210BD0220704790F8FC
:101F20002832012B0DD010B50446012380F8283249
:101F300080F82410006800F008FF002084F82802D0
:101F400010BD0220704770B505460C4611F0800F99
:101F500021D101F00700400100F594712944284483
:101F6000002680F8296104F007040C700A61CB7028
:101F70004A7802B1CC81022B18D095F82832012B77
:101F800017D0012385F82832286800F0C3FB002011
:101F900085F8280270BD01F00700400100F128011A
:101FA00029442844012680F82960DCE700230B71CE
:101FB000E3E70220EEE710B504460B4611F0800F70
:101FC0001AD101F00702520102F594710144024452
:101FD000002082F8290103F007030B7094F82832DF
:101FE000012B14D0012384F82832206800F04DFD25
:101FF000002084F8280210BD01F00702520102F10E
:10200000280101440244012082F82900E3E702206C
:10201000F1E770B501F00704650105F5947101441D
:102020000544C5F83C2104F10A02560100EB4212B6
:1020300083510023536085F8293185F8284124B95C
:10204000006800F0A5FE002070BD006800F0A0FE52
:10205000F9E701F007010A3100EB411148687047C8
:1020600070B501F00704650105F12801014405443C
:10207000EA63A21C560100EB421283510023536015
:10208000012385F8293085F8284024B9006800F03C
:102090007FFE002070BD006800F07AFEF9E7F8B519
:1020A0000546ADE003889BB223F4E14323F07003BF
:1020B0006FEA43436FEA53439BB203802A68B2F846
:1020C00050309BB295F8281003EBC103023302EBAA
:1020D0004303B3F80034C3F309036B64EA6B13449E
:1020E000EB6300212846FFF7ADFD95F82430002B67
:1020F00000F086802B6C002B40F0828095F8243015
:102100002A6843F08003A2F84C30002385F824307D
:1021100076E0B0F850309BB295F8282103EBC2036B
:10212000063300EB4303B3F80034C3F30903C5F8E7
:102130004431B5F82E2105F50C7100F0D2FF2A6864
:10214000138823F070031B051B0D43F080031380DD
:102150002846FFF765FD53E03E2A09D8510812F0E2
:10216000010F00D00131890289B2A3F80C14A8E054
:10217000510912F01F0F00D101396FEAC1626FEAF5
:10218000524292B2A3F80C249BE030F824309FB264
:1021900013F4004F40F0A48017F0800F30D02A686D
:1021A00032F824309BB223F4E14323F070036FEA4A
:1021B00043436FEA53439BB222F824302A68B2F8B3
:1021C00050309BB205EB441191F8280003EBC0039B
:1021D000023302EB4303B3F80024C2F30902A31C49
:1021E000580105EB43135A60CB6B1A44CA632B5852
:1021F000002B40F0128191F828102846FFF722FDAD
:102200002868B0F8443013F4004F00F00E81B0F8A5
:102210004440A3B214F00F04B7D113F0100F3FF4F1
:1022200041AF03889AB213F4006F7FF472AF12F4D7
:10223000004FE5D0038823F070031B051B0D43F00E
:10224000800303802868B0F850309BB295F82821AD
:1022500003EBC203063300EB4303B3F80034C3F3CC
:102260000903C5F844318BB1D5F83C1171B1B5F80B
:102270002E2100F036FFD5F84421D5F83C31134427
:10228000C5F83C3100212846FFF7D2FC2A68B2F895
:1022900050309BB21344D5F83821002A7FF45CAF4C
:1022A000B3F80C2492B222F4F84292B2A3F80C24B0
:1022B000B3F80C246FEA42426FEA524292B2A3F89A
:1022C0000C242A6813889BB223F4804323F0700304
:1022D00083F4405343F4004343F0800313808FE7BB
:1022E00030F8243023F070031B051B0D43F08003EE
:1022F00020F8243005EB441393F83431DBB9286817
:10230000B0F850309BB205EB441292F8282103EB51
:10231000C203063300EB4303B3F80064C6F30906B7
:1023200096B305EB44113346B1F82E21D1F83C1198
:1023300000F0D7FE28E0286805EB441393F8282125
:1023400030F8223013F4804F47D0B0F850309BB2B1
:1023500003EBC203023300EB4303B3F80064C6F39C
:10236000090686BB2A6805EB441393F8281132F856
:1023700021309BB223F4E04323F0700343F4004385
:1023800043F0C00322F8213004F10A03590105EBA0
:1023900043135A6832445A6005EB4413D3F83C2186
:1023A0003244C3F83C216B582BB105EB4411D1F8F2
:1023B00038118E4229D205EB441393F82811284690
:1023C000FFF736FCE8E605EB44113346B1F830215F
:1023D000D1F83C1100F085FEC4E7B0F850309BB254
:1023E00003EBC203063300EB4303B3F80064C6F308
:1023F0000906002EB6D005EB44113346B1F8322160
:10240000D1F83C1100F06DFEACE705EB441191F8FA
:1024100028112846FFF7FDFDBEE605EB441494F8AD
:1024200028102846FFF71CFEEAE60020F8BD10B58C
:102430000446006800F093FC10F4004F45D120687A
:1024400000F08DFC10F4806F43D1206800F087FC11
:1024500010F4804F08D02268B2F844309BB223F4C5
:1024600080439BB2A2F84430206800F078FC10F45E
:10247000005F08D02268B2F844309BB223F40053C6
:102480009BB2A2F84430206800F069FC10F4805F31
:1024900030D1206800F063FC10F4006F49D120684F
:1024A00000F05DFC10F4007F6FD1206800F057FC55
:1024B00010F4807F08D02268B2F844309BB223F435
:1024C00080739BB2A2F8443010BD2046FFF7E7FDB1
:1024D000B5E72268B2F844309BB223F480639BB224
:1024E000A2F844302046FFF7BCFB00212046FFF74E
:1024F00016FDAAE72268B2F840309BB223F004032D
:102500009BB2A2F840302268B2F840309BB223F070
:1025100008039BB2A2F840302046FFF7C5FB2268B3
:10252000B2F844309BB223F480539BB2A2F84430FB
:10253000AFE72268B2F840309BB243F00803A2F83C
:1025400040302268B2F844309BB223F400639BB25F
:10255000A2F844302268B2F840309BB243F0040342
:10256000A2F84030206800F0FAFB10F4805F08D039
:102570002268B2F844309BB223F480539BB2A2F895
:1025800044302046FFF780FB89E72268B2F84430E8
:102590009BB223F400739BB2A2F844302046FFF7AD
:1025A0005AFB82E738B501F0070543689D422CD8F5
:1025B000044611F0800F19D14B0103F594710144C9
:1025C0000344002283F8292101238B700D7094F8B5
:1025D0002832012B1BD0012384F82832206800F018
:1025E0003EFB65B1002084F8280238BD6B0103F181
:1025F000280101440344012283F82920E4E704F57B
:102600000C71206800F0AFFBECE70120EDE7022041
:10261000EBE70B4601F00F01426891422CD810B550
:10262000044613F0800F1CD103F00702520102F59B
:10263000947101440244002082F8290100228A702A
:1026400003F007030B7094F82832012B16D00123F6
:1026500084F82832206800F027FB002084F8280244
:1026600010BD03F00702520102F1280101440244A7
:10267000012082F82900E1E7012070470220EFE7FE
:1026800011F0800F09D001F0070149012831014400
:1026900042B90A73CB8000207047490101F594715B
:1026A0000144F5E701220A730B811B0C4B81F2E711
:1026B00084B001A880E80E00002004B07047B0F894
:1026C00040309BB243F43F43A0F8403000207047B5
:1026D000B0F8403023F47C535B045B0CA0F840302E
:1026E000002070470020704784B038B505AD85E8FC
:1026F0000E000123A0F840300025A0F84050A0F8BB
:102700004450A0F85050FFF7DAFF2846BDE83840A3
:1027100004B0704730B403460C7830F8242092B2ED
:1027200022F4EC4222F0700292B2C87803285AD800
:10273000DFE800F04E550251002048F280052A43A0
:1027400023F824200C7833F8242092B222F4E042BB
:1027500022F0700222432A4323F824200A7B002A15
:1027600040F0B6804A78002A4ED0B3F8502092B29A
:102770001A440C7802EB0412CC8864086400A2F8B6
:1027800000440C7833F8242012F0400F0CD033F8BA
:10279000242092B222F4E04222F0700242F400427D
:1027A00042F0C00223F82420CA78012A1DD00978FB
:1027B00033F8212092B222F4E04222F0400282F06B
:1027C000200242F4004242F0800223F8212064E01B
:1027D00042F40072B1E742F4C0620020ADE742F477
:1027E00080620020A9E70120A7E7097833F82120BB
:1027F00092B222F4E04222F0400242F4004242F05F
:10280000800223F8212048E0B3F8502092B21A4405
:102810000C7802EB0412CC8864086400A2F8084427
:10282000B3F8502092B21A440C7802EB04120C69EF
:10283000ACBBB2F80C44A4B224F4F844A4B2A2F89D
:102840000C44B2F80C446FEA44446FEA5444A4B216
:10285000A2F80C440C7833F8242012F4804F0CD0EA
:1028600033F8242092B222F4E04222F0700242F4C3
:10287000404242F0800223F82420097833F82120D6
:1028800092B222F4804222F0700282F4405242F46A
:10289000004242F0800223F8212030BC70473E2CD9
:1028A00009D8650814F0010F00D00135AD02ADB2B2
:1028B000A2F80C54CEE7650914F01F0F00D1013DBA
:1028C0006FEAC5646FEA5444A4B2A2F80C44C1E7AD
:1028D0000C7833F8242092B222F4E04222F0700205
:1028E00042F4014242F0800223F82420B3F8502041
:1028F00092B21A440C7802EB04120C89640864004A
:10290000A2F80044B3F8502092B21A440C7802EBBB
:1029100004124C8964086400A2F808444A78002A2A
:102920004ED10C7833F8242012F4804F0CD033F8B9
:10293000242092B222F4E04222F0700242F440429B
:1029400042F0800223F824200C7833F8242012F07F
:10295000400F0CD033F8242092B222F4E04222F04F
:10296000700242F4004242F0C00223F824200C78A6
:1029700033F8242092B222F4E04222F0700242F4B2
:10298000004242F0C00223F824200D7833F82520BD
:1029900092B222F4804222F0700282F4405248F255
:1029A0008004224323F82520097833F8212092B2AD
:1029B00022F4E04222F04002224323F821206CE777
:1029C0000C7833F8242012F4804F0CD033F82420F4
:1029D00092B222F4E04222F0700242F4404242F00D
:1029E000800223F824200C7833F8242012F0400FC2
:1029F0000CD033F8242092B222F4E04222F070028C
:102A000042F4004242F0C00223F824200C7833F84C
:102A1000242092B222F4E04222F0700242F44042BA
:102A200042F0800223F82420CA78012A1ED00C78B4
:102A300033F8242092B222F4E04222F0400282F0E5
:102A4000200242F4004242F0800223F82420097858
:102A500033F8212092B222F4804222F0700242F434
:102A6000004242F0800223F8212016E70C7833F868
:102A7000242092B222F4E04222F0400242F40042CA
:102A800042F0800223F82420E1E70B7B002B46D1A3
:102A90004B7813B30A7830F8223013F0400F0CD083
:102AA00030F822309BB223F4E04323F0700343F468
:102AB000004343F0C00320F822300A7830F8223077
:102AC0009BB223F4E04323F0400343F4004343F07C
:102AD000800320F82230002070470A7830F8223036
:102AE00013F4804F0CD030F822309BB223F4E04333
:102AF00023F0700343F4404343F0800320F8223076
:102B00000A7830F822309BB223F4804323F070031C
:102B100043F4004343F0800320F82230DBE710B495
:102B20004B78002B4ED10A7830F8223013F4804FC6
:102B30000CD030F822309BB223F4E04323F0700332
:102B400043F4404343F0800320F822300A7830F801
:102B5000223013F0400F0CD030F822309BB223F417
:102B6000E04323F0700343F4004343F0C00320F834
:102B700022300A7830F822309BB223F4E04323F06D
:102B8000700343F4004343F0C00320F822300B7875
:102B900030F8232092B222F4804222F0700248F2F0
:102BA0008004224320F823200A7830F822309BB298
:102BB00023F4E04323F04003234320F82230002095
:102BC00010BC70470A7830F8223013F4804F0CD0D4
:102BD00030F822309BB223F4E04323F0700343F437
:102BE000404343F0800320F822300A7830F8223046
:102BF00013F0400F0CD030F822309BB223F4E043A6
:102C000023F0700343F4004343F0C00320F8223064
:102C10000A7830F822309BB223F4E04323F07003AB
:102C200043F4404343F0800320F822300B7830F81F
:102C3000232092B222F4E04222F0400248F28004C3
:102C4000224320F823200A7830F822309BB223F464
:102C5000804323F07003234320F82230AFE74B7802
:102C60008BB10A7830F822309BB223F4E04323F092
:102C7000400383F0100343F4004343F0800320F843
:102C80002230002070470A7830F822309BB223F4BB
:102C9000804323F0700383F4805343F4004343F0F4
:102CA000800320F82230ECE70B7B002B4BD14B78D4
:102CB00033B30A7830F8223013F0400F0CD030F8DC
:102CC00022309BB223F4E04323F0700343F400432B
:102CD00043F0C00320F82230CB78012B33D00A78A0
:102CE00030F822309BB223F4E04323F0400383F01A
:102CF000200343F4004343F0800320F8223022E015
:102D00000A7830F8223013F4804F0CD030F822309B
:102D10009BB223F4E04323F0700343F4404343F0B9
:102D2000800320F822300A7830F822309BB223F456
:102D3000804323F0700383F4405343F4004343F093
:102D4000800320F822300020704711B98023A0F8BA
:102D50004C30002070470020704700207047B0F8CA
:102D6000440080B270470020704710B45C1C6408B7
:102D700000EB420202F5806244B10B78487843EAE6
:102D8000002322F8043B0231013CF5E710BC7047F8
:102D900070B505460C464978012937D0A2692369E8
:102DA0009A4240F20A81D21AA261227B002A40F0A4
:102DB0002181B5F8502092B22A44217802EB011209
:102DC000002B40F0FE80B2F80C349BB223F4F843A1
:102DD0009BB2A2F80C34B2F80C346FEA43436FEAAA
:102DE00053439BB2A2F80C34227835F822309BB2C0
:102DF00023F4804323F0700383F4405343F40043EF
:102E000043F0800325F82230002070BDA2692369B9
:102E10009A4224D9D21AA261227B22B3227835F8B1
:102E2000220010F0400F79D0002946D1B5F850109B
:102E300089B2294401EB021233BBB2F80C1489B2F7
:102E400021F4F84189B2A2F80C14B2F80C146FEA1C
:102E500041416FEA514189B2A2F80C1436E00023D7
:102E6000A3611346D8E79EB23346E28861692846DB
:102E7000FFF77BFFB5F850309BB22B44227803EB71
:102E80000213A3F8046438E03E2B09D8590813F064
:102E9000010F00D00131890289B2A2F80C1415E0AB
:102EA000590913F01F0F00D101396FEAC1616FEAB0
:102EB000514189B2A2F80C1408E0B5F8501089B25B
:102EC000294401EB021299B2A2F80C1462899BB258
:102ED00061692846FFF749FF6378002B5CD12278AF
:102EE00035F822309BB223F4E04323F0700343F41F
:102EF000004343F0C00325F82230227835F8223011
:102F00009BB223F4E04323F0400383F0300343F407
:102F1000004343F0800325F8223075E789BBB5F8FC
:102F2000501089B2294401EB02128BB9B2F8041493
:102F300089B221F4F84189B2A2F80414B2F8041459
:102F40006FEA41416FEA514189B2A2F8041421E0CD
:102F50003E2B09D8590813F0010F00D00131890226
:102F600089B2A2F8041415E0590913F01F0F00D11B
:102F700001396FEAC1616FEA514189B2A2F80414C4
:102F800008E0B5F8501089B2294401EB021299B259
:102F9000A2F8041422899AE7012BAED1227835F8E1
:102FA00022309BB223F4E04323F0700343F4404308
:102FB00043F0800325F822309FE70023A3611346E6
:102FC000F3E63E2B09D8590813F0010F00D0013168
:102FD000890289B2A2F80C1406E7590913F01F0FF1
:102FE00000D101396FEAC1616FEA514189B2A2F89B
:102FF0000C14F9E6C1B9B5F8502092B22A442178F0
:1030000002EB01126BBBB2F8041489B221F4F8414F
:1030100089B2A2F80414B2F804146FEA41416FEACD
:10302000514189B2A2F804146278002A4BD1B5F854
:10303000502092B22A44217802EB011253BBB2F81D
:103040000C349BB223F4F8439BB2A2F80C34B2F8D0
:103050000C346FEA43436FEA53439BB2A2F80C343B
:10306000C2E63E2B09D8590813F0010F00D00131F8
:10307000890289B2A2F80414D6E7590913F01F0F88
:1030800000D101396FEAC1616FEA514189B2A2F8FA
:103090000414C9E73E2B09D8590813F0010F00D0DA
:1030A0000131890289B2A2F80C149DE6590913F086
:1030B0001F0F00D101396FEAC1636FEA53439BB21E
:1030C000A2F80C3490E6012A7FF48EAEB5F85020B9
:1030D00092B22A44217802EB01129BB2A2F80C347E
:1030E00082E610B45C0800EB420000F5806044B159
:1030F00030F8042B0A70C2F307224A700231013CF7
:10310000F5E713F0010F01D003880B7010BC704776
:1031100008B5074A136843F010031360032000F05A
:10312000F9FC0020FEF704FCFEF7D8FB002008BDE8
:1031300000200240034A1168034B1B780B441360C4
:10314000704700BF6847002060000020014B1868EE
:10315000704700BF6847002082B0084B1B68084AD0
:10316000A2FB03235B0A00FB03F3019300BF019B57
:103170005A1E0192002BF9D102B07047680000205E
:10318000D34D6210002800F0F18170B582B0044682
:10319000036813F0010F2CD0AA4B5B6803F00C03FB
:1031A000042B1DD0A74B5B6803F00C03082B12D037
:1031B0006368B3F5803F41D0002B55D103F18043C4
:1031C00003F504331A6822F480321A601A6822F474
:1031D00080221A6037E09B4B5B6813F4803FE7D096
:1031E000984B1B6813F4003F03D06368002B00F07A
:1031F000BF81236813F0020F75D0924B5B6813F008
:103200000C0F5FD08F4B5B6803F00C03082B54D07E
:103210002369002B00F089808B4B01221A60FFF795
:1032200095FF0546874B1B6813F0020F74D1FFF71B
:103230008DFF401B0228F5D903209EE1814A1368C7
:1032400043F480331360636843B3FFF77FFF0546A1
:103250007C4B1B6813F4003FCBD1FFF777FF401B7B
:103260006428F5D9032088E1B3F5A02F09D0754B68
:103270001A6822F480321A601A6822F480221A60D6
:10328000E1E703F18043A3F53C331A6842F480225E
:103290001A601A6842F480321A60D4E7FFF756FFCA
:1032A0000546684B1B6813F4003FA2D0FFF74EFFA2
:1032B000401B6428F5D903205FE1624B5B6813F47F
:1032C000803FA5D15F4B1B6813F0020F03D0236929
:1032D000012B40F04F815B4A136823F0F8036169CA
:1032E00043EAC1031360236813F0080F32D0A369C7
:1032F000002B45D0554B01221A60FFF727FF0546EA
:10330000504B5B6A13F0020F21D1FFF71FFF401BE8
:103310000228F5D9032030E14A4A136823F0F80364
:10332000616943EAC1031360DDE7474B00221A607D
:10333000FFF70CFF0546434B1B6813F0020FD2D07A
:10334000FFF704FF401B0228F5D9032015E10120F7
:10335000FFF702FF236813F0040F00F09780394B4A
:10336000DB6913F0805F1DD1364BDA6942F0805281
:10337000DA61DB6903F080530193019B012512E0C0
:10338000324B00221A60FFF7E1FE05462D4B5B6AC7
:1033900013F0020FDED0FFF7D9FE401B0228F5D94B
:1033A0000320EAE000252A4B1B6813F4807F11D02C
:1033B000E368012B22D0002B38D103F1804303F5C1
:1033C00004331A6A22F001021A621A6A22F0040215
:1033D0001A6218E01E4A136843F480731360FFF703
:1033E000B5FE06461A4B1B6813F4807FE0D1FFF749
:1033F000ADFE801B6428F5D90320BEE0114A136A94
:1034000043F001031362E36873B3FFF79FFE0646C0
:103410000C4B1B6A13F0020F37D1FFF797FE801B8E
:1034200041F288339842F3D90320A6E0052B11D04E
:10343000044B1A6A22F001021A621A6A22F004028C
:103440001A62E0E70010024000004242800442425B
:10345000007000404D4B1A6A42F004021A621A6A68
:1034600042F001021A62CEE7FFF770FE0646474BB4
:103470001B6A13F0020F08D0FFF768FE801B41F2B1
:1034800088339842F3D9032077E0E5B9E369002B4C
:1034900072D03E4A526802F00C02082A56D0022B23
:1034A00017D03B4B00221A60FFF750FE0446374B03
:1034B0001B6813F0007F47D0FFF748FE001B02286F
:1034C000F5D9032059E0314AD36923F08053D36101
:1034D000DCE72F4B00221A60FFF738FE05462B4B26
:1034E0001B6813F0007F06D0FFF730FE401B022858
:1034F000F5D9032041E0236AB3F5803F1AD0234970
:103500004B6823F47413226A606A024313434B60CE
:103510001F4B01221A60FFF719FE04461B4B1B6864
:1035200013F0007F0ED1FFF711FE001B0228F5D922
:10353000032022E0154A536823F40033A1680B43AB
:103540005360DCE7002018E0002016E0012B16D0C5
:103550000E4B5B6803F48031226A914211D103F46F
:103560007013626A93420ED1002006E0012070477A
:10357000012002E0012000E0002002B070BD012027
:10358000FBE70120F9E70120F7E700BF0010024048
:103590006000424286B0164B0FCB0DF1180C0CE9BF
:1035A0000F0040F20123ADF80430124B5B6803F0CA
:1035B0000C02082A02D0104806B07047C3F38342B9
:1035C000624412F8102C13F4803F0CD0094B5B6856
:1035D000C3F34043634413F8143C074800FB02F074
:1035E000B0FBF3F0E8E7054800FB02F0E4E700BFBA
:1035F000D0B300080010024000127A0000093D001C
:10360000002800F0A08070B50D460446524B1B68A0
:1036100003F007038B420BD24F4A136823F00703D2
:103620000B431360136803F007038B4240F08D8057
:10363000236813F0020F17D013F0040F04D0474A89
:10364000536843F4E0635360236813F0080F04D019
:10365000424A536843F460535360404A536823F02E
:10366000F003A1680B435360236813F0010F31D0BE
:103670006368012B20D0022B25D0384A126812F043
:10368000020F64D035494A6822F0030213434B60AD
:10369000FFF75CFD0646314B5B6803F00C03626884
:1036A000B3EB820F16D0FFF751FD801B41F2883338
:1036B0009842F0D9032045E0284A126812F4003FEE
:1036C000E0D101203EE0254A126812F0007FD9D1F6
:1036D000012037E0204B1B6803F00703AB420AD9F7
:1036E0001D4A136823F007032B431360136803F08C
:1036F0000703AB422DD1236813F0040F06D0174AFD
:10370000536823F4E063E1680B435360236813F0CC
:10371000080F07D0114A536823F46053216943EA24
:10372000C1035360FFF736FF0C4B5B68C3F3031311
:103730000B4AD35CD8400B4B18600B4B1868FEF754
:10374000F7F8002070BD012070470120FAE7012042
:10375000F8E70120F6E700BF002002400010024019
:10376000E4B300086800002064000020014B1868E2
:10377000704700BF6800002008B5FFF7F7FF044B53
:103780005B68C3F30223034AD35CD84008BD00BF83
:1037900000100240F4B300080F2303600B4B5A687B
:1037A00002F0030242605A6802F0F00282605A6836
:1037B00002F4E062C2605B68DB0803F4E06303616B
:1037C000034B1B6803F007030B60704700100240B7
:1037D0000020024070B582B00446036813F0010F68
:1037E00034D03E4BDB6913F0805F47D13B4BDA6945
:1037F00042F08052DA61DB6903F080530193019B50
:103800000125374B1B6813F4807F39D0334B1B6A7B
:1038100013F4407311D0626802F440729A420CD0E3
:103820002E4A136A23F440702E4901260E600026AA
:103830000E60106213F0010F36D1284A136A23F488
:10384000407361680B431362002D3ED1236813F06F
:10385000020F06D0214A536823F44043A1680B436A
:103860005360236813F0100F34D01C4A536823F4BC
:103870008003E1680B43536000202CE00025C0E783
:10388000174A136843F480731360FFF75FFC064622
:10389000134B1B6813F4807FB8D1FFF757FC801BD4
:1038A0006428F5D9032016E0FFF750FC06460B4BC1
:1038B0001B6A13F0020FC0D1FFF748FC801B41F2D6
:1038C00088339842F3D9032005E0D36923F080536D
:1038D000D361BBE7002002B070BD00BF0010024002
:1038E0000070004040044242F0B482B000252C46F3
:1038F000A3E07F4FBB4210D007D97E4FBB420CD014
:1039000007F58037BB4208D013E0A7F58017BB420C
:1039100003D007F57027BB4207D18B68002B58D026
:10392000012B51D04261082503E0A7F58017BB4267
:10393000F3D0FF2E4FD88446FF2E4FD8A200DCF8DC
:1039400000300F27974023EA070305FA02F21343DA
:10395000CCF800304B6813F0805F6DD0664B9A69ED
:1039600042F001029A619B6903F001030193019BFC
:10397000A208971C614B53F8273004F00307BF00DF
:103980004FF00F0C0CFA07FC23EA0C0C5C4B98422E
:103990002AD003F58063984200F08A8003F58063A3
:1039A000984200F0878003F5806398421AD0042380
:1039B0001BE0CD68BDE7CD680435BAE7CD680835B2
:1039C000B7E7CD680C35B4E702610825B1E70025FB
:1039D000AFE70425ADE700F1040CADE7A4F1080260
:1039E0009200ACE7032300E00023BB4043EA0C0352
:1039F0000232424F47F822304B6813F4803F5BD0CD
:103A0000404A1368334313604B6813F4003F59D0A6
:103A10003C4A5368334353604B6813F4801F57D0BC
:103A2000384A9368334393604B6813F4001F55D0B2
:103A3000344AD3681E43D66001340B6833FA04F26B
:103A400052D00122A24003EA020632EA0303F3D174
:103A50004B68122B3FF64DAF122B3FF66AAF01A712
:103A600057F823F01B390008B3390008BD390008A6
:103A7000CF390008333900083339000833390008DA
:103A80003339000833390008333900083339000866
:103A90003339000833390008333900083339000856
:103AA0003339000833390008B7390008C339000832
:103AB00001239AE7022398E7124A136823EA0603D0
:103AC0001360A1E70F4A536823EA06035360A3E794
:103AD0000C4A936823EA06039360A5E7094AD36872
:103AE00023EA0606D660A7E702B0F0BC704700BF25
:103AF00000002210000031100010024000000140C0
:103B000000080140000401400AB101617047090446
:103B100001617047074AD36823F4E0631B041B0C60
:103B2000000200F4E060034343F0BF6343F400335A
:103B3000D360704700ED00E030B4174BDB68C3F38F
:103B40000223C3F10704042C28BF04241D1D062DE5
:103B500018D9033B4FF0FF3505FA04F421EA0401BC
:103B6000994005FA03F322EA0303194300280BDB0B
:103B70000901C9B200F1604000F5614080F800130E
:103B800030BC70470023E5E700F00F000901C9B21F
:103B9000024B1954F4E700BF00ED00E014ED00E023
:103BA000002807DB00F01F02400901239340024A6E
:103BB00042F82030704700BF00E100E07047026823
:103BC000D36843F00103D3600268936803F00703EE
:103BD000062B03D0136843F00103136000207047E5
:103BE000704770477047704710B5044603681A69FC
:103BF00012F0020F11D0DA6812F0020F0DD06FF040
:103C000002021A610123037703689B6913F0030F13
:103C100070D0FFF7E6FF0023237723681A6912F0BC
:103C2000040F12D0DA6812F0040F0ED06FF0040205
:103C30001A610223237723689B6913F4407F5FD0C6
:103C40002046FFF7CEFF0023237723681A6912F07E
:103C5000080F12D0DA6812F0080F0ED06FF00802C9
:103C60001A61042323772368DB6913F0030F4ED016
:103C70002046FFF7B6FF0023237723681A6912F066
:103C8000100F12D0DA6812F0100F0ED06FF0100281
:103C90001A61082323772368DB6913F4407F3DD042
:103CA0002046FFF79EFF0023237723681A6912F04E
:103CB000010F03D0DA6812F0010F36D123681A69B8
:103CC00012F0800F03D0DA6812F0800F34D123682D
:103CD0001A6912F0400F03D0DA6812F0400F32D1A7
:103CE00023681A6912F0200F03D0DA6812F0200F4F
:103CF00030D110BDFFF774FF2046FFF773FF8AE74E
:103D00002046FFF76DFF2046FFF76CFF9BE720463C
:103D1000FFF766FF2046FFF765FFACE72046FFF799
:103D20005FFF2046FFF75EFFBDE76FF001021A61FB
:103D30002046FDF7A7FDC1E76FF080021A6120461B
:103D400000F065F8C3E76FF040021A612046FFF704
:103D50004AFFC5E76FF020021A61204600F056F8CE
:103D6000C7E7000003681B4A90420AD0B0F1804FB9
:103D700007D0A2F59432904203D002F580629042BF
:103D800003D123F070034A681343124A90420AD0C9
:103D9000B0F1804F07D0A2F59432904203D002F5E3
:103DA0008062904203D123F44073CA68134323F026
:103DB00080034A69134303608B68C3620B688362A4
:103DC000044B984202D00123436170470B6903639F
:103DD000F9E700BF002C0140B0B110B5044690F8DF
:103DE0003D3063B1022384F83D30214651F8040B85
:103DF000FFF7B8FF012384F83D30002010BD80F8A4
:103E00003C30FFF7DBFEEDE701207047704770475D
:103E10000F4B1A6842F001021A6059680D4A0A40B5
:103E20005A601A6822F0847222F480321A601A688A
:103E300022F480221A605A6822F4FE025A604FF47B
:103E40001F029A60044B4FF000629A60704700BFF7
:103E5000001002400000FFF800ED00E000F1080350
:103E600043604FF0FF328260C36003610023036050
:103E7000704700230361704743684B609A688A600B
:103E8000516099600861036801330360704730B482
:103E90000D68B5F1FF3F11D000F108031C465B68C7
:103EA0001A68AA42FAD963684B6099608C606160B5
:103EB000086103680133036030BC70470469F2E7AE
:103EC0000369416882688A60416851605A68824229
:103ED00006D0002202611A68013A1A601868704719
:103EE00082685A60F5E710B5044601F05BFCA26BEE
:103EF000E36B9A4204D0002401F076FC204610BD0A
:103F00000124F9E710B5044601F04CFCA36B23B97A
:103F1000012401F069FC204610BD0024F9E770B5CA
:103F200004461546866B026C5AB903681BB1002023
:103F30000136A66370BD406800F098FF00236360FF
:103F4000F6E76DB9806802F0F7FB226CA3681344B2
:103F5000A3606268934219D32368A3602846E7E709
:103F6000C06802F0E9FB226C5142E3689B1AE360EF
:103F70002268934202D263680B44E360022D01D0B1
:103F80000020D5E726B1013E0020D1E72846CFE743
:103F90000020CDE70346026C6AB110B50846D96827
:103FA0001144D9605C68A14201D31968D960D9680D
:103FB00002F0C2FB10BD704738B5054601F0F2FBB8
:103FC00095F8454064B203E000F03AFF013C64B26A
:103FD000002C08DD6B6A33B105F1240000F09CFE73
:103FE0000028F3D0F0E7FF2385F8453001F0FCFB13
:103FF00001F0D8FB95F8444064B203E000F020FFE4
:10400000013C64B2002C08DD2B6933B105F11000CE
:1040100000F082FE0028F3D0F0E7FF2385F844305B
:1040200001F0E2FB38BD000038B5E0B10D460446B2
:1040300001F0B8FB2168E26B236C03FB02106060A7
:104040000020A063A160013A02FB0313E360FF2399
:1040500084F8443084F84530EDB9236963B901F040
:10406000C3FB012038BD4FF0500383F31188BFF329
:104070006F8FBFF34F8FFEE704F1100000F04CFE8E
:104080000028ECD0084B4FF080521A60BFF34F8FDE
:10409000BFF36F8FE3E704F11000FFF7DFFE04F1D9
:1040A0002400FFF7DBFEDAE704ED00E038B51D463B
:1040B000049C0B4649B92460E06323640121204637
:1040C000FFF7B2FF84F84C5038BD2260F4E740B9E6
:1040D0004FF0500383F31188BFF36F8FBFF34F8FFF
:1040E000FEE730B585B01C46054653B192B189B99B
:1040F0004FF0500383F31188BFF36F8FBFF34F8FDF
:10410000FEE74FF0500383F31188BFF36F8FBFF3C7
:104110004F8FFEE76AB150230393039B502B13D0BC
:104120004FF0500383F31188BFF36F8FBFF34F8FAE
:10413000FEE70029EFD04FF0500383F31188BFF35F
:104140006F8FBFF34F8FFEE7012384F84630009452
:104150009DF820302846FFF7A9FF204605B030BD66
:10416000F0B585B0019288B10E461D460446B1B146
:10417000022D20D1E36B012B1DD04FF0500383F3B0
:104180001188BFF36F8FBFF34F8FFEE74FF05003DF
:1041900083F31188BFF36F8FBFF34F8FFEE7036C7C
:1041A000002BE5D04FF0500383F31188BFF36F8FDE
:1041B000BFF34F8FFEE700F049FE074658B9019B59
:1041C000002B44D04FF0500383F31188BFF36F8F5F
:1041D000BFF34F8FFEE7002739E02A4631462046DD
:1041E000FFF79DFE626A6AB938B13C4B4FF08052CE
:1041F0001A60BFF34F8FBFF36F8F01F0F5FA012004
:1042000005B0F0BD04F1240000F086FD0028F4D0D4
:10421000324B4FF080521A60BFF34F8FBFF36F8F56
:10422000EBE701F0E1FA0020EAE702A800F0BAFDAE
:10423000012719E0002384F8443021E0002384F8AA
:10424000453023E02046FFF7B7FE00F06BFC01F09D
:10425000A9FAA26BE36B9A42BFD3022DBDD0019B9A
:10426000002BDED0002FE0D001F0BEFA00F0C0FB42
:1042700001F098FA94F844305BB2B3F1FF3FD9D023
:1042800094F845305BB2B3F1FF3FD7D001F0ACFA00
:1042900001A902A800F092FDC8B92046FFF723FE4D
:1042A0000028CFD0019904F1100000F001FD204654
:1042B000FFF782FE00F036FC0028C8D1074B4FF014
:1042C00080521A60BFF34F8FBFF36F8FBFE7204656
:1042D000FFF772FE00F026FC002091E704ED00E0FD
:1042E0002DE9F84390B1894690461F460446B1B186
:1042F000022F20D1E36B012B1DD04FF0500383F32D
:104300001188BFF36F8FBFF34F8FFEE74FF050035D
:1043100083F31188BFF36F8FBFF34F8FFEE7036CFA
:10432000002BE5D04FF0500383F31188BFF36F8F5C
:10433000BFF34F8FFEE701F023FBEFF311864FF041
:10434000500383F31188BFF36F8FBFF34F8FA26BBE
:10435000E36B9A4206D3022F04D0002086F3118823
:10436000BDE8F88394F845506DB23A464946204678
:10437000FFF7D5FDB5F1FF3F05D06B1C5BB284F8AC
:1043800045300120EAE7636A0BB90120E6E704F152
:10439000240000F0C1FC30B1B8F1000F05D00120BD
:1043A000C8F80000DAE70120D8E70120D6E70000CE
:1043B000F0B585B0019290B10E460446C1B100F04F
:1043C00045FD074600BB019B002B5CD04FF050031E
:1043D00083F31188BFF36F8FBFF34F8FFEE74FF06A
:1043E000500383F31188BFF36F8FBFF34F8FFEE746
:1043F000036C002BE3D04FF0500383F31188BFF31D
:104400006F8FBFF34F8FFEE700273CE03146204619
:10441000FFF7C0FD013DA563236923B901F0E4F96D
:10442000012005B0F0BD04F1100000F075FC00287B
:10443000F4D0354B4FF080521A60BFF34F8FBFF36B
:104440006F8FEBE701F0D0F90020EAE702A800F057
:10445000A9FC012721E0002384F8443029E000234F
:1044600084F845302BE02046FFF7A6FD00F05AFB0C
:1044700009E02046FFF7A0FD00F054FB2046FFF7BF
:1044800041FD00283DD101F08DF9A56B002DBDD176
:10449000019B002BD6D0002FD8D001F0A5F900F059
:1044A000A7FA01F07FF994F844305BB2B3F1FF3F13
:1044B000D1D094F845305BB2B3F1FF3FCFD001F0DB
:1044C00093F901A902A800F079FC0028D1D1204677
:1044D000FFF718FD0028C6D0019904F1240000F070
:1044E000E7FB2046FFF768FD00F01CFB0028CAD15F
:1044F000054B4FF080521A60BFF34F8FBFF36F8FA1
:10450000C1E700208DE700BF04ED00E0002300E0DC
:104510000133072B0BD8064A52F83320002AF7D173
:10452000034A42F8331002EBC303586070477047E8
:104530006C47002070B504460D46164601F032F96E
:1045400094F844305BB2B3F1FF3F0DD094F845309E
:104550005BB2B3F1FF3F0BD001F046F9A36B5BB147
:104560002046FFF729FD70BD002384F84430EDE7B5
:10457000002384F84530EFE73246294604F1240051
:1045800000F0AEFBECE70000084B1B681B6823B98A
:10459000074B4FF0FF321A607047044B1B68DB6813
:1045A000DB685A68024B1A60704700BFD4040020D1
:1045B0007C0900202DE9F04780460D4617469946B4
:1045C000089EDDF824A00A9C9200A521206B02F031
:1045D000C1F8236B07F18042013A03EB820727F011
:1045E000070700220F2A07D8A95CA31883F8341004
:1045F000AB5C0BB10132F5E7002384F84330372E72
:1046000000D93726E662E66400252565201DFFF700
:1046100030FC04F11800FFF72CFC2461C6F13806C9
:10462000A6616462656584F858504A46414638463A
:1046300001F08EF82060BAF1000F01D0CAF80040F6
:10464000BDE8F08738B50024372C08D804EB840285
:1046500093000E481844FFF701FC0134F4E70C4DB9
:104660002846FFF7FBFB0B4C2046FFF7F7FB0A48F9
:10467000FFF7F4FB0948FFF7F1FB0948FFF7EEFBF2
:10468000084B1D60084B1C6038BD00BFDC040020D7
:10469000540900206809002084090020B009002086
:1046A0009C090020D4040020D804002010B5044642
:1046B00001F078F8214A136801331360204B1B681E
:1046C0005BB1204B1B686BB91D4B1B68DA6AE36A50
:1046D0009A4207D81A4B1C6004E0194B1C601368FF
:1046E000012B27D0184A1368013313606364E06A12
:1046F000164B1B68984201D9144B186000EB8000E0
:10470000211D134B03EB8000FFF7B6FB01F06CF8A3
:104710000C4B1B686BB10A4B1B68DA6AE36A9A425E
:1047200007D20C4B4FF080521A60BFF34F8FBFF38C
:104730006F8F10BDFFF786FFD4E700BF3C09002054
:10474000D0040020980900204C09002050090020C6
:10475000DC04002004ED00E010B5044690F8593068
:1047600063B1012B11D0022B0ED04FF0500383F315
:104770001188BFF36F8FBFF34F8FFEE7006B00F020
:104780007FFF204600F07CFF10BD00F079FFFBE7C3
:104790000F4B1B68D3B110B501F004F80D4BDB686B
:1047A000DC68201DFFF78CFB0B4A1368013B13608C
:1047B000074A1368013B136001F016F82046FFF723
:1047C000CBFF034B1B68002BE6D110BD704700BF29
:1047D00040090020B00900203C09002008B5FFF77F
:1047E000D7FF064B1B68012BF9D9054B4FF08052C0
:1047F0001A60BFF34F8FBFF36F8FF0E7DC04002028
:1048000004ED00E070B504460D46174B1E68174BCB
:1048100018680430FFF754FBB4F1FF3F0DD0344467
:10482000124B1B685C60A64210D9114B18680F4BE5
:1048300019680431FFF72BFB70BD002DEFD00B4B37
:10484000196804310B48FFF717FBF5E70A4B1868A6
:10485000064B19680431FFF71AFB084B1B68A3428B
:10486000EAD9064B1C60E7E7C4090020D004002009
:10487000D80400209C090020D40400207C090020DA
:1048800070B586B00B9D0C9C75B1B4B15C260496D6
:10489000049E5C2E1AD04FF0500383F31188BFF3AF
:1048A0006F8FBFF34F8FFEE74FF0500383F31188F4
:1048B000BFF36F8FBFF34F8FFEE74FF0500383F3CB
:1048C0001188BFF36F8FBFF34F8FFEE7256302257B
:1048D00084F8595000250395029405AD01950A9D71
:1048E0000095FFF767FE2046FFF7E0FE059806B04B
:1048F00070BD2DE9F04385B00746884614461E4634
:10490000900000F045FE00B381465C2000F040FEC0
:104910000546B0B1C0F83090E5B1002385F85930B4
:10492000039302950D9B01930C9B00933346224603
:1049300041463846FFF73EFE2846FFF7B7FE012006
:1049400005E0484600F09CFEE6E74FF0FF3005B07A
:10495000BDE8F0834FF0FF30F9E7000010B588B0F4
:1049600000240594069407AA06A905A800F09CFD5A
:10497000059B0293069B019300942346079A1749CF
:104980001748FFF77DFF48B100F024FB0346012BD9
:1049900006D0B3F1FF3F18D008B010BD0023F6E7F2
:1049A0004FF0500383F31188BFF36F8FBFF34F8F26
:1049B0000C4B4FF0FF321A600B4B01221A600B4B6D
:1049C00000221A6000F080FFE6E74FF0500383F307
:1049D0001188BFF36F8FBFF34F8FFEE7FCB3000862
:1049E000DD4700087C09002098090020C409002048
:1049F000024A136801331360704700BF4809002062
:104A0000014B1868704700BFC4090020F8B53A4B45
:104A10001B68002B65D1394B1D6801351D60C5B978
:104A2000374B1B681B6843B14FF0500383F3118869
:104A3000BFF36F8FBFF34F8FFEE7314A1168314BE1
:104A4000186810601960304A136801331360FFF76B
:104A50009BFD2E4B1B68AB420CD900242C4B1B68D2
:104A6000DB6A03EB83039A002A4B9B58012B3DD949
:104A700001243BE0002416E0244B4FF0FF321A6083
:104A8000ECE7224A1360E9E703EB83039A00394617
:104A900020481044FFF7F0F9F26A1D4B1B68DB6AEF
:104AA0009A4200D30124164B1B681B68002BE3D0ED
:104AB000134B1B68DB68DE6873689D42E1D3371DCA
:104AC0003846FFF7FDF9B36A1BB106F11800FFF78E
:104AD000F7F9F36A104A12689342D5D90E4A136067
:104AE000D2E70E4A13680133136000240C4B1B6895
:104AF00003B101242046F8BD48090020C409002064
:104B0000D4040020D8040020800900207C09002063
:104B1000D0040020DC0400205009002044090020BB
:104B2000C809002038B5344B1B6843B94FF0500317
:104B300083F31188BFF36F8FBFF34F8FFEE700F051
:104B400031FE2D4B1A68013A1A601B68002B4DD1BB
:104B50002A4B1B680BB9002449E00024284B1B6832
:104B60001BB3274BDB68DC6804F11800FFF7A8F9DA
:104B7000251D2846FFF7A4F9E06A224B1B689842DE
:104B800001D9204B186000EB800029461E4B03EB37
:104B90008000FFF771F9E26A1C4B1B68DB6A9A42DE
:104BA000DCD31B4B01221A60D8E70CB1FFF7ECFCF9
:104BB000184B1C6874B9164B1C68C4B1164B4FF0E7
:104BC00080521A60BFF34F8FBFF36F8F01240EE046
:104BD000013C07D0FFF71AFF0028F9D00C4B012247
:104BE0001A60F5E70B4B00221A60E4E7002400F09E
:104BF000FBFD204638BD00BF480900203C090020CD
:104C00008409002050090020DC040020D00400208A
:104C1000C80900204409002004ED00E01F4B1B6878
:104C20001BB11F4B01221A6070471D4B00221A60F6
:104C30001C4B1B6803EB83018A001B498A585AB935
:104C40000BB1013BF6E74FF0500383F31188BFF33C
:104C50006F8FBFF34F8FFEE710B403EB830082002A
:104C60000A4450684068506003EB8304A200144675
:104C70000832114488420CD003EB830291000A4AA7
:104C80000A445268D168094A1160064A136010BC90
:104C900070474068044A22445060EDE7480900200C
:104CA000C809002050090020DC040020D0040020A6
:104CB00058B110B50C46094B19681831FFF7E7F8E1
:104CC00001212046FFF79EFD10BD4FF0500383F3F6
:104CD0001188BFF36F8FBFF34F8FFEE7D004002022
:104CE00038B570B10C4615460A4B19681831FFF7F4
:104CF000C3F80DB14FF0FF3429462046FFF782FD7F
:104D000038BD4FF0500383F31188BFF36F8FBFF3AB
:104D10004F8FFEE7D004002038B5C368DC6824B3A9
:104D200004F118052846FFF7CBF8184B1B682BBB7E
:104D3000251D2846FFF7C4F8E06A154B1B6898420A
:104D400001D9134B186000EB80002946114B03EB8F
:104D50008000FFF791F8E26A0F4B1B68DB6A9A420A
:104D600011D901200D4B18600EE04FF0500383F372
:104D70001188BFF36F8FBFF34F8FFEE729460848B6
:104D8000FFF77AF8E7E7002038BD00BF48090020A8
:104D900050090020DC040020D0040020C8090020B5
:104DA00084090020034B1B680360034B1B684360AE
:104DB000704700BF80090020C4090020F8B5C8B1C1
:104DC0000C460546F9B100F0EDFC1B4B19686B6809
:104DD000C81A2268B2F1FF3F26D02F68174E3668F6
:104DE000B74201D08B4224D9824215D800232360D8
:104DF00001241AE04FF0500383F31188BFF36F8F43
:104E0000BFF34F8FFEE74FF0500383F31188BFF3DA
:104E10006F8FBFF34F8FFEE75B1A13442360284662
:104E2000FFF7C0FF002400E0002400F0DDFC204676
:104E3000F8BD0124F9E700BFC40900208009002063
:104E4000014B01221A607047C8090020054B1B68FE
:104E500033B1054B1B680BB100207047022070472F
:104E600001207047980900204809002000283BD005
:104E700038B504461E4B1B68834208D04FF05003E0
:104E800083F31188BFF36F8FBFF34F8FFEE7036D7E
:104E900043B94FF0500383F31188BFF36F8FBFF313
:104EA0004F8FFEE7013B0365C16AC26C91421DD082
:104EB0000BB1002038BD051D2846FFF701F8E06C56
:104EC000E062C0F13803A3610A4B1B68984201D924
:104ED000084B186000EB80002946074B03EB80006D
:104EE000FEF7CAFF0120E5E7002070470020E1E758
:104EF000D004002050090020DC040020064B1A6872
:104F00001368B3FA83F35B09036013B9D3681868B5
:104F100070470020704700BFCC09002008B54160F1
:104F2000006191420CD8D21A83699A4201D30120C0
:104F300008BD011D094B1868FEF7A9FF0020F7E71F
:104F40009A4201D2994206D2011D054B1868FEF71C
:104F50009EFF0020ECE70120EAE700BFD009002017
:104F6000CC09002030B583B000F01CFC114B1B684D
:104F70001BB100F039FC03B030BD0F4D2846FEF7E1
:104F80006DFF0E4C2046FEF769FF0D4B1D600D4B6B
:104F90001C60002300930C4B0C4A10210A20FFF7E1
:104FA00096F8044B18600028E3D00949FFF7AEFAE1
:104FB000DFE700BFF00A0020740A0020880A002002
:104FC000CC090020D0090020A00A0020D40900202C
:104FD00004B4000810B588B0FFF7C4FF124B1B687B
:104FE000CBB100240594069407AA06A905A800F0F1
:104FF00067FA059B0293069B0193022300932346C5
:10500000079A0A490A48FFF73BFC0A4A106010B1A8
:10501000012008B010BD4FF0500383F31188BFF397
:105020006F8FBFF34F8FFEE7F00A00200CB400082B
:1050300015530008F40A0020C0B110B584B014461E
:105040001A4603461648006838B30091019402934B
:1050500005291CDCFFF7FAFE022810D000231A46AF
:1050600069460F480068FFF77BF814E04FF05003E3
:1050700083F31188BFF36F8FBFF34F8FFEE70023D9
:10508000069A694606480068FFF76AF803E00023BD
:105090006946FFF725F904B010BD0020FBE700BF0B
:1050A000F00A002070B582B01A4B1B681A6852B320
:1050B000DB681E68DC68251D2846FEF701FF636A71
:1050C00020469847E369012BEED1A36933449E4201
:1050D00007D26360246129460E4B1868FEF7D7FE9D
:1050E000E2E7002100910B4632462046FFF7A4FF7D
:1050F0000028D9D14FF0500383F31188BFF36F8F8D
:10510000BFF34F8FFEE7044A10680249086013603E
:1051100002B070BDCC090020D009002038B505468A
:10512000FFF76EFC0446074B1B68834205D800233B
:105130002B60044B1C60204638BDFFF7B3FF0123F2
:105140002B60F6E79C0A002070B582B005460E463B
:10515000144B1B68DB68DC68201DFEF7B1FEE369B9
:10516000012B04D0636A2046984702B070BDA16944
:105170002B46324629442046FFF7D0FE0028F1D0C6
:10518000002100910B462A462046FFF755FF0028D4
:10519000E8D14FF0500383F31188BFF36F8FBFF353
:1051A0004F8FFEE7CC09002070B582B006460C4652
:1051B000FFF71EFC01A8FFF7B1FF019B1BBB0546D3
:1051C0000CB9B04218D22CB1114B1B681C68B4FA50
:1051D00084F464092246711B0E4B1868FFF7AAF984
:1051E000FFF7A0FC88B90C4B4FF080521A60BFF358
:1051F0004F8FBFF36F8F08E0FFF794FC29463046CE
:10520000FFF7A2FF01E0FFF78DFC02B070BD00BF09
:10521000D0090020F00A002004ED00E010B588B0AD
:1052200006E007990698059B9847049B002B0BDA2C
:10523000002204A9364B1868FFF7BAF8002865D099
:10524000049B002BF1DAECE7069C636913B1201D87
:10525000FEF736FE03A8FFF761FF049B092BE7D892
:1052600001A252F823F000BF9152000891520008A9
:105270009152000831520008D7520008FD52000830
:10528000915200089152000831520008D75200088C
:10529000059BA169024619442046FFF73FFE0028FE
:1052A000C6D0636A20469847E369012BC0D1A26942
:1052B000002100910B46059802442046FFF7BCFEF2
:1052C0000028B5D14FF0500383F31188BFF36F8FDF
:1052D000BFF34F8FFEE70599A16131B10346024646
:1052E00001442046FFF71AFEA2E74FF0500383F374
:1052F0001188BFF36F8FBFF34F8FFEE794F82C3008
:10530000002B95D1204600F0BBF991E708B010BD05
:10531000F00A002000B583B001A8FFF7EFFD019966
:10532000FFF742FFFFF77AFFF6E70000EFF3058390
:1053300093B9EFF3108393B90C4B1868022804D08B
:1053400080B90A4B01221A607047EFF31183002BDA
:10535000F6D06FF0050070476FF0050070476FF0F2
:10536000050070474FF0FF30704700BF540D00201C
:1053700008B5EFF30583B3B9EFF31083B3B90E4B60
:105380001B68022B08D0012B13D10B4B02221A6091
:10539000FFF7E4FA002008BDEFF31182002AF2D0F3
:1053A0006FF00500F7E76FF00500F4E76FF0050018
:1053B000F1E74FF0FF30EEE7540D0020F0B587B075
:1053C00000240494EFF30584002C43D1EFF3108301
:1053D000002B3FD1334B1B68022B21D0002839D042
:1053E00000238DF8173062B31568EDB1936903B9E6
:1053F00018235C1E372C51D8546814F0010F4FD17C
:105400005669A6B14FEA960C94682CB1D7685B2F09
:1054100002D9176907B106BB64B14FF0FF3416E03B
:10542000EFF31183B3B9D9E70DF11705DEE74FF0BC
:10543000800CE9E7D46894B914699CB14FF0FF344B
:1054400005E0002418234FF0800C0DF11705012C06
:105450000AD0ACB1049807B0F0BD0124F7E74FF0D3
:10546000FF34F4E70024F2E7146992680292019491
:1054700000930B4662462946FFF702FA0490E9E7DB
:1054800004AA019200930B461FFA8CF22946FFF7FB
:1054900030FA0128DED000230493DBE70020DAE7AE
:1054A0000020D8E7540D0020034B0360034B0B6032
:1054B00080231360704700BFF80C0020F80A00201A
:1054C000034B0360034B0B604FF480731360704712
:1054D00058110020580D0020124A12F0070F1ED05C
:1054E000D11D21F00701C1F5806313440A460E481F
:1054F0000260002141601344083B23F007030B487E
:10550000036059601960991A51601360084B196063
:10551000084B1960084B4FF000421A6070474FF477
:105520008063E4E7B8110020C4150020B411002006
:10553000C0150020BC150020B815002010B4124B77
:105540001A461B688342FBD351685418844209D021
:1055500041684418A3420AD00360904200D0106012
:1055600010BC70474068014451601046F0E7074C9A
:105570002468A34206D05B681944416013681B6825
:105580000360EAE70460E8E7C4150020B4110020D6
:1055900070B50446FFF72CFA344B1B68A3B1344BAB
:1055A0001B681C424AD134B1083414F0070F02D0F2
:1055B00024F007040834002C42D02E4B1B68A34271
:1055C0004DD32D4B1D6804E0FFF786FFE7E72B4620
:1055D00015466A68A24202D22A68002AF7D1234AF5
:1055E0001268AA423DD01E6808362A681A606B68A5
:1055F0001B1B102B10D9281910F0070F08D04FF0E3
:10560000500383F31188BFF36F8FBFF34F8FFEE713
:1056100043606C60FFF792FF6A6816490B689B1A3B
:105620000B60164909688B4201D214490B60104B7C
:105630001B6813436B6000232B6002E0002600E030
:105640000026FFF76FFA16F0070F0CD04FF050034B
:1056500083F31188BFF36F8FBFF34F8FFEE70026F0
:10566000EFE70026EDE7304670BD00BFB411002023
:10567000B8150020BC150020C4150020C01500205E
:1056800080B338B50446A0F1080550F8043C164A2A
:105690001268134208D14FF0500383F31188BFF30F
:1056A0006F8FBFF34F8FFEE750F8081C41B14FF0EA
:1056B000500383F31188BFF36F8FBFF34F8FFEE763
:1056C00023EA020340F8043CFFF792F954F8041C63
:1056D000064A13680B4413602846FFF72FFFFFF7B5
:1056E00021FA38BD704700BFB8150020BC15002056
:1056F00082B0002301930D4B1B68B3F1FF3F08D02C
:105700004FF0500383F31188BFF36F8FBFF34F8FB8
:10571000FEE74FF0500383F31188BFF36F8FBFF3A1
:105720004F8F019B002BFCD002B070476C00002013
:1057300006480068006880F3088862B661B6BFF367
:105740004F8FBFF36F8F00DF00BF000008ED00E058
:105750004FF0807340F8043C21F0010140F8081C30
:10576000034B40F80C3C40F8202C4038704700BFF9
:10577000F1560008000000000000000000000000DA
:10578000074B19680868B0E8F00F80F30988BFF389
:105790006F8F4FF0000080F311884EF00D0E7047B0
:1057A000D00400204FF0500383F31188BFF36F8FB4
:1057B000BFF34F8F0A4A136801331360012B00D0E7
:1057C0007047084B1B6813F0FF0FF9D04FF05003E0
:1057D00083F31188BFF36F8FBFF34F8FFEE700BFD6
:1057E0006C00002004ED00E0094B1B6843B94FF04A
:1057F000500383F31188BFF36F8FBFF34F8FFEE722
:10580000013B034A13600BB983F31188704700BF53
:105810006C000020000000000000000000000000FC
:10582000EFF30980BFF36F8F0D4B1A6820E9F00F7B
:1058300010602DE908404FF0500080F31188FFF709
:10584000EDF94FF0000080F31188BDE808401968B9
:105850000868B0E8F00F80F30988BFF36F8F7047D6
:10586000D004002008B54FF0500383F31188BFF334
:105870006F8FBFF34F8FFFF7C9F818B1034B4FF08D
:1058800080521A60002383F3118808BD04ED00E004
:10589000084A0023136008490B60084B1B6808493D
:1058A000A1FB03139B09013B06490B60072313600F
:1058B000704700BF10E000E018E000E06800002042
:1058C000D34D621014E000E010B582B0274B1A7877
:1058D000D2B20192FF221A701B78DBB28DF803302E
:1058E0009DF8033003F05003214A1370214B072227
:1058F0001A609DF8033013F0800F0AD01D4A136818
:10590000013B13609DF803305B00DBB28DF8033080
:10591000EFE7184B1B68032B08D04FF0500383F3BD
:105920001188BFF36F8FBFF34F8FFEE71B0203F4A5
:10593000E063104A1360019BDBB20C4A13700E4BFC
:105940001A6842F470021A601A6842F070421A60D3
:10595000FFF79EFF0024094B1C60FFF7E9FEFFF7ED
:105960005DF9FFF7C5FE204602B010BD00E400E07F
:10597000CC150020D015002020ED00E06C000020A8
:10598000EFF305830F2B0FD9104A9B5CDBB2104A53
:1059900012789A4208D94FF0500383F31188BFF36D
:1059A0006F8FBFF34F8FFEE70A4B1B6803F4E06372
:1059B000094A1268934208D94FF0500383F31188C3
:1059C000BFF36F8FBFF34F8FFEE77047F0E300E048
:1059D000CC1500200CED00E0D015002098B108B5E2
:1059E0000346D0F8B40210B10020C3F8B40209B1E4
:1059F000C3F8B012012183F89C121A701846FCF704
:105A000059F9002008BD0220704719B1C0F8B4123E
:105A1000002070470220704708B5FCF78DF9002080
:105A200008BD08B5D0F8B4322BB11B68984700B94F
:105A300008BD0220FCE70220FAE708B5D0F8B4322E
:105A40005B689847002008BD38B5044600F52A7504
:105A5000284600F034F90123C4F89432B4F8AE3289
:105A6000C4F8983294F8A81201F01F03012B0ED04D
:105A7000022B11D02BB101F080012046FCF777F901
:105A800003E02946204600F0C9FA002038BD294627
:105A9000204600F0F7FAF8E72946204600F022FBFE
:105AA000F3E738B504460D4691BB1346D0F894226F
:105AB000032A03D0052A24D0084633E0D0F8601129
:105AC000D0F8642191420DD9891AC0F860118A4238
:105AD00006D98AB21946204600F035FC284621E056
